:020000021000EC
:10F000000C9446F80C9465F80C9465F80C9465F82B
:10F010000C9465F80C9465F80C9465F80C9465F8FC
:10F020000C9465F80C9465F80C9465F80C9465F8EC
:10F030000C9465F80C9465F80C9465F80C9465F8DC
:10F040000C9465F80C9465F80C9465F80C9465F8CC
:10F050000C9465F80C9465F80C9465F80C9465F8BC
:10F060000C9465F80C9465F80C9465F80C9465F8AC
:10F070000C9465F80C9465F80C9465F80C9465F89C
:10F080000C9465F80C9465F80C9465F811241FBE77
:10F09000CFEFD0E4DEBFCDBF11E0A0E0B1E0EAEDFC
:10F0A000F7EF01E00BBF02C007900D92A230B1074D
:10F0B000D9F712E0A2E0B1E001C01D92AD30B10776
:10F0C000E1F70E9478F90C94EBFB0C9400F8982F70
:10F0D00080910201813019F0823041F008958091D1
:10F0E000C00085FFFCCF9093C60008958091C800B2
:10F0F00085FFFCCF9093CE0008951F93982F959590
:10F10000959595959595905D8F708A3054F4182F4C
:10F11000105D892F0E9467F8812F0E9467F81F9168
:10F120000895182F195A892F0E9467F8812F0E947D
:10F1300067F81F910895EF92FF920F931F938091AC
:10F140000201813069F1823031F080E01F910F912E
:10F15000FF90EF900895EE24FF2487018091C8006E
:10F1600087FD17C00894E11CF11C011D111D81E0F1
:10F17000E81680E1F8068EE0080780E0180770F3D3
:10F18000E0910401F091050109958091C80087FF85
:10F19000E9CF8091CE001F910F91FF90EF900895DD
:10F1A000EE24FF2487018091C00087FD17C00894DA
:10F1B000E11CF11C011D111D81E0E81680E1F8063B
:10F1C0008EE0080780E0180770F3E0910401F091E9
:10F1D000050109958091C00087FFE9CF8091C600A5
:10F1E0001F910F91FF90EF9008951F930E949BF83D
:10F1F000182F0E9467F8113634F410330CF01053B6
:10F20000812F1F9108951755812F1F9108951F93E6
:10F210000E94F5F8182F0E94F5F81295107F810FC3
:10F220001F910895982F20910201992339F02130E0
:10F2300031F0223061F091509923C9F708958091FF
:10F24000C00087FFFCCF8091C6009150F5CF809120
:10F25000C80087FFFCCF8091CE009150EDCF1F9367
:10F26000182F0E949BF8803281F0809103018F5FFC
:10F2700080930301853011F01F910895E0910401FE
:10F28000F091050109951F91089584E10E9467F8A6
:10F29000812F0E9467F880E10E9467F81F9108950E
:10F2A0000E949BF8803271F0809103018F5F809300
:10F2B0000301853009F00895E0910401F091050102
:10F2C0000995089584E10E9467F880E10E9467F83B
:10F2D0000895882361F020E034EB2F9AF9013197EB
:10F2E000F1F72F98F9013197F1F78150B1F70895AF
:10F2F000FF920F931F93CF93DF9394B714BE809127
:10F3000060008861809360001092600091FF3AC2B3
:10F3100081E0809302018093C4001092C500109296
:10F32000C00086E08093C20088E18093C100279AE4
:10F3300082E00E9469F9FF24F3940E949BF88033D5
:10F34000B9F18133C1F1803409F455C0813409F435
:10F350005BC0823409F469C0853409F46CC080351F
:10F3600039F1823529F1813509F481C1853509F4F6
:10F3700068C0863509F470C0843609F4F8C0843753
:10F3800009F48FC0853709F473C0863709F449C082
:10F39000809103018F5F80930301853071F6E091C6
:10F3A0000401F091050109950E949BF8803349F60C
:10F3B0000E9450F9C2CF0E949BF8803249F784E145
:10F3C0000E9467F881E40E9467F886E50E9467F86A
:10F3D00082E50E9467F880E20E9467F889E40E9453
:10F3E00067F883E50E9467F880E50E9467F880E18E
:10F3F0000E9467F8A2CF0E949BF88638C8F20E944C
:10F400009BF80E9450F999CF0E949BF8803809F42C
:10F410001BC1813809F414C1823809F42EC188391E
:10F42000E1F180E00E942FF988CF84E10E9412F977
:10F430000E9450F982CF85E00E9412F90E9450F993
:10F440007CCF0E949BF8809306010E949BF88093DA
:10F4500007010E9450F971CF0E949BF8803309F494
:10F46000F7C083E00E9412F980E00E942FF965CF77
:10F470000E949BF8803209F08BCF84E10E9467F8EC
:10F480008EE10E9467F887E90E9467F885E00E9494
:10F4900067F880E10E9467F850CF83E00E942FF95F
:10F4A0004CCF0E949BF8809309020E949BF88093A6
:10F4B0000802209106013091070137FDE8C08091D4
:10F4C0000C028D7F80930C02220F331F30930701B3
:10F4D000209306010E949BF8853409F4D2C08091E4
:10F4E0000C028E7F80930C020E949BF8803209F000
:10F4F00024CF84E10E9467F880910802909109026C
:10F50000892B39F200E010E02091060130910701CB
:10F510001AC081FD3DC1F90184910E9467F82091D4
:10F520000601309107012F5F3F4F30930701209371
:10F5300006010F5F1F4F8091080290910902081782
:10F54000190708F0A6CF80910C0280FFE2CFC90115
:10F550000E94D5FB0E9467F82091060130910701B7
:10F560002F5F3F4F3093070120930601E2CF0E94A7
:10F570009BF8809309020E949BF880930802809177
:10F580000C028E7F80930C020E949BF8853429F434
:10F5900080910C02816080930C028091080290910E
:10F5A0000902892B89F000E010E00E949BF8F80125
:10F5B000E85FFE4F80830F5F1F4F8091080290919C
:10F5C00009020817190788F30E949BF8803209F096
:10F5D000DFCE80910C0280FF68C02091060130913F
:10F5E0000701220F331F30930701209306018091FA
:10F5F000080290910902892BE1F000E010E0F80187
:10F60000E85FFE4FC90160810E94DDFB2091060189
:10F61000309107012F5F3F4F309307012093060180
:10F620000F5F1F4F80910802909109020817190778
:10F6300030F384E10E9467F880E10E9467F87DCE94
:10F6400081E00E942FF979CE82E00E942FF975CED9
:10F650000E949BF80E949BF8182F0E949BF8112390
:10F6600001F11130D1F085E00E942FF966CE0E94A1
:10F6700050F988E080936000FFCF80E10E942FF96D
:10F680005CCE80910C02816080930C022DCF809122
:10F690000C02826080930C0217CF87E90E942FF939
:10F6A0004CCE8EE10E942FF948CE8091070188232D
:10F6B000880F880B8F2180930B028BBF80910601EE
:10F6C00090910701880F991F90930701809306017D
:10F6D0008091080280FF09C0809108029091090280
:10F6E00001969093090280930802F894F999FECF4D
:10F6F0001127E0910601F0910701C8E0D1E0809167
:10F70000080290910902103091F4009157000170A5
:10F710000130D9F303E000935700E89500915700BA
:10F7200001700130D9F301E100935700E895099089
:10F7300019900091570001700130D9F301E0009356
:10F740005700E8951395103898F01127009157004D
:10F7500001700130D9F305E000935700E89500915E
:10F76000570001700130D9F301E100935700E8958B
:10F770003296029709F0C7CF103011F00296E5CF0C
:10F78000112457CFE0910401F09105010995C0CDF6
:10F79000C901A0E0B0E080509040AF4FBF4FABBF79
:10F7A000FC0187910E9467F8BACEF999FECF92BD0D
:10F7B00081BDF89A992780B50895262FF999FECF33
:10F7C0001FBA92BD81BD20BD0FB6F894FA9AF99A7E
:0AF7D0000FBE01960895F894FFCFD4
:02F7DA008000AD
:040000031000F000F9
:00000001FF
